{
  "_format": "hh-sol-artifact-1",
  "contractName": "SimpleDonationNFT",
  "sourceName": "contracts/SimpleDonationNFT.sol",
  "abi": [
    {
      "inputs": [],
      "stateMutability": "nonpayable",
      "type": "constructor"
    },
    {
      "inputs": [
        {
          "internalType": "address",
          "name": "sender",
          "type": "address"
        },
        {
          "internalType": "uint256",
          "name": "tokenId",
          "type": "uint256"
        },
        {
          "internalType": "address",
          "name": "owner",
          "type": "address"
        }
      ],
      "name": "ERC721IncorrectOwner",
      "type": "error"
    },
    {
      "inputs": [
        {
          "internalType": "address",
          "name": "operator",
          "type": "address"
        },
        {
          "internalType": "uint256",
          "name": "tokenId",
          "type": "uint256"
        }
      ],
      "name": "ERC721InsufficientApproval",
      "type": "error"
    },
    {
      "inputs": [
        {
          "internalType": "address",
          "name": "approver",
          "type": "address"
        }
      ],
      "name": "ERC721InvalidApprover",
      "type": "error"
    },
    {
      "inputs": [
        {
          "internalType": "address",
          "name": "operator",
          "type": "address"
        }
      ],
      "name": "ERC721InvalidOperator",
      "type": "error"
    },
    {
      "inputs": [
        {
          "internalType": "address",
          "name": "owner",
          "type": "address"
        }
      ],
      "name": "ERC721InvalidOwner",
      "type": "error"
    },
    {
      "inputs": [
        {
          "internalType": "address",
          "name": "receiver",
          "type": "address"
        }
      ],
      "name": "ERC721InvalidReceiver",
      "type": "error"
    },
    {
      "inputs": [
        {
          "internalType": "address",
          "name": "sender",
          "type": "address"
        }
      ],
      "name": "ERC721InvalidSender",
      "type": "error"
    },
    {
      "inputs": [
        {
          "internalType": "uint256",
          "name": "tokenId",
          "type": "uint256"
        }
      ],
      "name": "ERC721NonexistentToken",
      "type": "error"
    },
    {
      "inputs": [
        {
          "internalType": "address",
          "name": "owner",
          "type": "address"
        }
      ],
      "name": "OwnableInvalidOwner",
      "type": "error"
    },
    {
      "inputs": [
        {
          "internalType": "address",
          "name": "account",
          "type": "address"
        }
      ],
      "name": "OwnableUnauthorizedAccount",
      "type": "error"
    },
    {
      "anonymous": false,
      "inputs": [
        {
          "indexed": true,
          "internalType": "address",
          "name": "owner",
          "type": "address"
        },
        {
          "indexed": true,
          "internalType": "address",
          "name": "approved",
          "type": "address"
        },
        {
          "indexed": true,
          "internalType": "uint256",
          "name": "tokenId",
          "type": "uint256"
        }
      ],
      "name": "Approval",
      "type": "event"
    },
    {
      "anonymous": false,
      "inputs": [
        {
          "indexed": true,
          "internalType": "address",
          "name": "owner",
          "type": "address"
        },
        {
          "indexed": true,
          "internalType": "address",
          "name": "operator",
          "type": "address"
        },
        {
          "indexed": false,
          "internalType": "bool",
          "name": "approved",
          "type": "bool"
        }
      ],
      "name": "ApprovalForAll",
      "type": "event"
    },
    {
      "anonymous": false,
      "inputs": [
        {
          "indexed": false,
          "internalType": "uint256",
          "name": "_fromTokenId",
          "type": "uint256"
        },
        {
          "indexed": false,
          "internalType": "uint256",
          "name": "_toTokenId",
          "type": "uint256"
        }
      ],
      "name": "BatchMetadataUpdate",
      "type": "event"
    },
    {
      "anonymous": false,
      "inputs": [
        {
          "indexed": false,
          "internalType": "uint256",
          "name": "_tokenId",
          "type": "uint256"
        }
      ],
      "name": "MetadataUpdate",
      "type": "event"
    },
    {
      "anonymous": false,
      "inputs": [
        {
          "indexed": true,
          "internalType": "address",
          "name": "minter",
          "type": "address"
        }
      ],
      "name": "MinterAdded",
      "type": "event"
    },
    {
      "anonymous": false,
      "inputs": [
        {
          "indexed": true,
          "internalType": "address",
          "name": "minter",
          "type": "address"
        }
      ],
      "name": "MinterRemoved",
      "type": "event"
    },
    {
      "anonymous": false,
      "inputs": [
        {
          "indexed": true,
          "internalType": "address",
          "name": "previousOwner",
          "type": "address"
        },
        {
          "indexed": true,
          "internalType": "address",
          "name": "newOwner",
          "type": "address"
        }
      ],
      "name": "OwnershipTransferred",
      "type": "event"
    },
    {
      "anonymous": false,
      "inputs": [
        {
          "indexed": true,
          "internalType": "address",
          "name": "from",
          "type": "address"
        },
        {
          "indexed": true,
          "internalType": "address",
          "name": "to",
          "type": "address"
        },
        {
          "indexed": true,
          "internalType": "uint256",
          "name": "tokenId",
          "type": "uint256"
        }
      ],
      "name": "Transfer",
      "type": "event"
    },
    {
      "inputs": [
        {
          "internalType": "address",
          "name": "minter",
          "type": "address"
        }
      ],
      "name": "addMinter",
      "outputs": [],
      "stateMutability": "nonpayable",
      "type": "function"
    },
    {
      "inputs": [
        {
          "internalType": "address",
          "name": "to",
          "type": "address"
        },
        {
          "internalType": "uint256",
          "name": "tokenId",
          "type": "uint256"
        }
      ],
      "name": "approve",
      "outputs": [],
      "stateMutability": "nonpayable",
      "type": "function"
    },
    {
      "inputs": [
        {
          "internalType": "address",
          "name": "",
          "type": "address"
        }
      ],
      "name": "authorizedMinters",
      "outputs": [
        {
          "internalType": "bool",
          "name": "",
          "type": "bool"
        }
      ],
      "stateMutability": "view",
      "type": "function"
    },
    {
      "inputs": [
        {
          "internalType": "address",
          "name": "owner",
          "type": "address"
        }
      ],
      "name": "balanceOf",
      "outputs": [
        {
          "internalType": "uint256",
          "name": "",
          "type": "uint256"
        }
      ],
      "stateMutability": "view",
      "type": "function"
    },
    {
      "inputs": [
        {
          "internalType": "uint256",
          "name": "tokenId",
          "type": "uint256"
        }
      ],
      "name": "getApproved",
      "outputs": [
        {
          "internalType": "address",
          "name": "",
          "type": "address"
        }
      ],
      "stateMutability": "view",
      "type": "function"
    },
    {
      "inputs": [],
      "name": "getCurrentTokenId",
      "outputs": [
        {
          "internalType": "uint256",
          "name": "",
          "type": "uint256"
        }
      ],
      "stateMutability": "view",
      "type": "function"
    },
    {
      "inputs": [
        {
          "internalType": "address",
          "name": "owner",
          "type": "address"
        },
        {
          "internalType": "address",
          "name": "operator",
          "type": "address"
        }
      ],
      "name": "isApprovedForAll",
      "outputs": [
        {
          "internalType": "bool",
          "name": "",
          "type": "bool"
        }
      ],
      "stateMutability": "view",
      "type": "function"
    },
    {
      "inputs": [
        {
          "internalType": "address",
          "name": "to",
          "type": "address"
        },
        {
          "internalType": "string",
          "name": "uri",
          "type": "string"
        }
      ],
      "name": "mint",
      "outputs": [
        {
          "internalType": "uint256",
          "name": "",
          "type": "uint256"
        }
      ],
      "stateMutability": "nonpayable",
      "type": "function"
    },
    {
      "inputs": [],
      "name": "name",
      "outputs": [
        {
          "internalType": "string",
          "name": "",
          "type": "string"
        }
      ],
      "stateMutability": "view",
      "type": "function"
    },
    {
      "inputs": [],
      "name": "owner",
      "outputs": [
        {
          "internalType": "address",
          "name": "",
          "type": "address"
        }
      ],
      "stateMutability": "view",
      "type": "function"
    },
    {
      "inputs": [
        {
          "internalType": "uint256",
          "name": "tokenId",
          "type": "uint256"
        }
      ],
      "name": "ownerOf",
      "outputs": [
        {
          "internalType": "address",
          "name": "",
          "type": "address"
        }
      ],
      "stateMutability": "view",
      "type": "function"
    },
    {
      "inputs": [
        {
          "internalType": "address",
          "name": "minter",
          "type": "address"
        }
      ],
      "name": "removeMinter",
      "outputs": [],
      "stateMutability": "nonpayable",
      "type": "function"
    },
    {
      "inputs": [],
      "name": "renounceOwnership",
      "outputs": [],
      "stateMutability": "nonpayable",
      "type": "function"
    },
    {
      "inputs": [
        {
          "internalType": "address",
          "name": "from",
          "type": "address"
        },
        {
          "internalType": "address",
          "name": "to",
          "type": "address"
        },
        {
          "internalType": "uint256",
          "name": "tokenId",
          "type": "uint256"
        }
      ],
      "name": "safeTransferFrom",
      "outputs": [],
      "stateMutability": "nonpayable",
      "type": "function"
    },
    {
      "inputs": [
        {
          "internalType": "address",
          "name": "from",
          "type": "address"
        },
        {
          "internalType": "address",
          "name": "to",
          "type": "address"
        },
        {
          "internalType": "uint256",
          "name": "tokenId",
          "type": "uint256"
        },
        {
          "internalType": "bytes",
          "name": "data",
          "type": "bytes"
        }
      ],
      "name": "safeTransferFrom",
      "outputs": [],
      "stateMutability": "nonpayable",
      "type": "function"
    },
    {
      "inputs": [
        {
          "internalType": "address",
          "name": "operator",
          "type": "address"
        },
        {
          "internalType": "bool",
          "name": "approved",
          "type": "bool"
        }
      ],
      "name": "setApprovalForAll",
      "outputs": [],
      "stateMutability": "nonpayable",
      "type": "function"
    },
    {
      "inputs": [
        {
          "internalType": "bytes4",
          "name": "interfaceId",
          "type": "bytes4"
        }
      ],
      "name": "supportsInterface",
      "outputs": [
        {
          "internalType": "bool",
          "name": "",
          "type": "bool"
        }
      ],
      "stateMutability": "view",
      "type": "function"
    },
    {
      "inputs": [],
      "name": "symbol",
      "outputs": [
        {
          "internalType": "string",
          "name": "",
          "type": "string"
        }
      ],
      "stateMutability": "view",
      "type": "function"
    },
    {
      "inputs": [
        {
          "internalType": "uint256",
          "name": "tokenId",
          "type": "uint256"
        }
      ],
      "name": "tokenURI",
      "outputs": [
        {
          "internalType": "string",
          "name": "",
          "type": "string"
        }
      ],
      "stateMutability": "view",
      "type": "function"
    },
    {
      "inputs": [
        {
          "internalType": "address",
          "name": "from",
          "type": "address"
        },
        {
          "internalType": "address",
          "name": "to",
          "type": "address"
        },
        {
          "internalType": "uint256",
          "name": "tokenId",
          "type": "uint256"
        }
      ],
      "name": "transferFrom",
      "outputs": [],
      "stateMutability": "nonpayable",
      "type": "function"
    },
    {
      "inputs": [
        {
          "internalType": "address",
          "name": "newOwner",
          "type": "address"
        }
      ],
      "name": "transferOwnership",
      "outputs": [],
      "stateMutability": "nonpayable",
      "type": "function"
    }
  ],
  "bytecode": "0x60806040523480156200001157600080fd5b50336040518060400160405280601681526020017f426c6f6f64436861696e2043657274696669636174650000000000000000000081525060405180604001604052806006815260200165109110d1549560d21b8152508160009081620000799190620001dd565b506001620000888282620001dd565b5050506001600160a01b038116620000ba57604051631e4fbdf760e01b81526000600482015260240160405180910390fd5b620000c581620000e6565b50336000908152600960205260409020805460ff19166001179055620002a9565b600780546001600160a01b038381166001600160a01b0319831681179093556040519116919082907f8be0079c531659141344cd1fd0a4f28419497f9722a3daafe3b4186f6b6457e090600090a35050565b634e487b7160e01b600052604160045260246000fd5b600181811c908216806200016357607f821691505b6020821081036200018457634e487b7160e01b600052602260045260246000fd5b50919050565b601f821115620001d857600081815260208120601f850160051c81016020861015620001b35750805b601f850160051c820191505b81811015620001d457828155600101620001bf565b5050505b505050565b81516001600160401b03811115620001f957620001f962000138565b62000211816200020a84546200014e565b846200018a565b602080601f831160018114620002495760008415620002305750858301515b600019600386901b1c1916600185901b178555620001d4565b600085815260208120601f198616915b828110156200027a5788860151825594840194600190910190840162000259565b5085821015620002995787850151600019600388901b60f8161c191681555b5050505050600190811b01905550565b6115b780620002b96000396000f3fe608060405234801561001057600080fd5b50600436106101375760003560e01c8063715018a6116100b8578063aa2fe91b1161007c578063aa2fe91b14610271578063b88d4fde14610294578063c87b56dd146102a7578063d0def521146102ba578063e985e9c5146102cd578063f2fde38b146102e057600080fd5b8063715018a61461022a5780638da5cb5b1461023257806395d89b4114610243578063983b2d561461024b578063a22cb4651461025e57600080fd5b80633092afd5116100ff5780633092afd5146101cc57806342842e0e146101df57806356189236146101f25780636352211e1461020457806370a082311461021757600080fd5b806301ffc9a71461013c57806306fdde0314610164578063081812fc14610179578063095ea7b3146101a457806323b872dd146101b9575b600080fd5b61014f61014a366004611082565b6102f3565b60405190151581526020015b60405180910390f35b61016c610304565b60405161015b91906110ef565b61018c610187366004611102565b610396565b6040516001600160a01b03909116815260200161015b565b6101b76101b2366004611137565b6103bf565b005b6101b76101c7366004611161565b6103ce565b6101b76101da36600461119d565b61045e565b6101b76101ed366004611161565b6104af565b6008545b60405190815260200161015b565b61018c610212366004611102565b6104cf565b6101f661022536600461119d565b6104da565b6101b7610522565b6007546001600160a01b031661018c565b61016c610536565b6101b761025936600461119d565b610545565b6101b761026c3660046111b8565b610599565b61014f61027f36600461119d565b60096020526000908152604090205460ff1681565b6101b76102a2366004611280565b6105a4565b61016c6102b5366004611102565b6105bc565b6101f66102c83660046112fc565b6105c7565b61014f6102db36600461135e565b61065f565b6101b76102ee36600461119d565b61068d565b60006102fe826106cb565b92915050565b60606000805461031390611391565b80601f016020809104026020016040519081016040528092919081815260200182805461033f90611391565b801561038c5780601f106103615761010080835404028352916020019161038c565b820191906000526020600020905b81548152906001019060200180831161036f57829003601f168201915b5050505050905090565b60006103a1826106f0565b506000828152600460205260409020546001600160a01b03166102fe565b6103ca828233610729565b5050565b6001600160a01b0382166103fd57604051633250574960e11b8152600060048201526024015b60405180910390fd5b600061040a838333610736565b9050836001600160a01b0316816001600160a01b031614610458576040516364283d7b60e01b81526001600160a01b03808616600483015260248201849052821660448201526064016103f4565b50505050565b61046661082f565b6001600160a01b038116600081815260096020526040808220805460ff19169055517fe94479a9f7e1952cc78f2d6baab678adc1b772d936c6583def489e524cb666929190a250565b6104ca838383604051806020016040528060008152506105a4565b505050565b60006102fe826106f0565b60006001600160a01b038216610506576040516322718ad960e21b8152600060048201526024016103f4565b506001600160a01b031660009081526003602052604090205490565b61052a61082f565b610534600061085c565b565b60606001805461031390611391565b61054d61082f565b6001600160a01b038116600081815260096020526040808220805460ff19166001179055517f6ae172837ea30b801fbfcdd4108aa1d5bf8ff775444fd70256b44e6bf3dfc3f69190a250565b6103ca3383836108ae565b6105af8484846103ce565b610458338585858561094d565b60606102fe82610a78565b3360009081526009602052604081205460ff16806105ef57506007546001600160a01b031633145b61062c5760405162461bcd60e51b815260206004820152600e60248201526d139bdd08185d5d1a1bdc9a5e995960921b60448201526064016103f4565b6008805490600061063c836113cb565b909155505060085461064e8482610b89565b6106588184610ba3565b9392505050565b6001600160a01b03918216600090815260056020908152604080832093909416825291909152205460ff1690565b61069561082f565b6001600160a01b0381166106bf57604051631e4fbdf760e01b8152600060048201526024016103f4565b6106c88161085c565b50565b60006001600160e01b03198216632483248360e11b14806102fe57506102fe82610bf3565b6000818152600260205260408120546001600160a01b0316806102fe57604051637e27328960e01b8152600481018490526024016103f4565b6104ca8383836001610c43565b6000828152600260205260408120546001600160a01b039081169083161561076357610763818486610d49565b6001600160a01b038116156107a157610780600085600080610c43565b6001600160a01b038116600090815260036020526040902080546000190190555b6001600160a01b038516156107d0576001600160a01b0385166000908152600360205260409020805460010190555b60008481526002602052604080822080546001600160a01b0319166001600160a01b0389811691821790925591518793918516917fddf252ad1be2c89b69c2b068fc378daa952ba7f163c4a11628f55a4df523b3ef91a4949350505050565b6007546001600160a01b031633146105345760405163118cdaa760e01b81523360048201526024016103f4565b600780546001600160a01b038381166001600160a01b0319831681179093556040519116919082907f8be0079c531659141344cd1fd0a4f28419497f9722a3daafe3b4186f6b6457e090600090a35050565b6001600160a01b0382166108e057604051630b61174360e31b81526001600160a01b03831660048201526024016103f4565b6001600160a01b03838116600081815260056020908152604080832094871680845294825291829020805460ff191686151590811790915591519182527f17307eab39ab6107e8899845ad3d59bd9653f200f220920489ca2b5937696c31910160405180910390a3505050565b6001600160a01b0383163b15610a7157604051630a85bd0160e11b81526001600160a01b0384169063150b7a029061098f9088908890879087906004016113f2565b6020604051808303816000875af19250505080156109ca575060408051601f3d908101601f191682019092526109c79181019061142f565b60015b610a33573d8080156109f8576040519150601f19603f3d011682016040523d82523d6000602084013e6109fd565b606091505b508051600003610a2b57604051633250574960e11b81526001600160a01b03851660048201526024016103f4565b805160208201fd5b6001600160e01b03198116630a85bd0160e11b14610a6f57604051633250574960e11b81526001600160a01b03851660048201526024016103f4565b505b5050505050565b6060610a83826106f0565b5060008281526006602052604081208054610a9d90611391565b80601f0160208091040260200160405190810160405280929190818152602001828054610ac990611391565b8015610b165780601f10610aeb57610100808354040283529160200191610b16565b820191906000526020600020905b815481529060010190602001808311610af957829003601f168201915b505050505090506000610b3460408051602081019091526000815290565b90508051600003610b46575092915050565b815115610b78578082604051602001610b6092919061144c565b60405160208183030381529060405292505050919050565b610b8184610dad565b949350505050565b6103ca828260405180602001604052806000815250610e21565b6000828152600660205260409020610bbb82826114c1565b506040518281527ff8e1a15aba9398e019f0b49df1a4fde98ee17ae345cb5f6b5e2c27f5033e8ce79060200160405180910390a15050565b60006001600160e01b031982166380ac58cd60e01b1480610c2457506001600160e01b03198216635b5e139f60e01b145b806102fe57506301ffc9a760e01b6001600160e01b03198316146102fe565b8080610c5757506001600160a01b03821615155b15610d19576000610c67846106f0565b90506001600160a01b03831615801590610c935750826001600160a01b0316816001600160a01b031614155b8015610ca65750610ca4818461065f565b155b15610ccf5760405163a9fbf51f60e01b81526001600160a01b03841660048201526024016103f4565b8115610d175783856001600160a01b0316826001600160a01b03167f8c5be1e5ebec7d5bd14f71427d1e84f3dd0314c0f7b2291e5b200ac8c7c3b92560405160405180910390a45b505b5050600090815260046020526040902080546001600160a01b0319166001600160a01b0392909216919091179055565b610d54838383610e39565b6104ca576001600160a01b038316610d8257604051637e27328960e01b8152600481018290526024016103f4565b60405163177e802f60e01b81526001600160a01b0383166004820152602481018290526044016103f4565b6060610db8826106f0565b506000610dd060408051602081019091526000815290565b90506000815111610df05760405180602001604052806000815250610658565b80610dfa84610e9c565b604051602001610e0b92919061144c565b6040516020818303038152906040529392505050565b610e2b8383610f2f565b6104ca33600085858561094d565b60006001600160a01b03831615801590610b815750826001600160a01b0316846001600160a01b03161480610e735750610e73848461065f565b80610b815750506000908152600460205260409020546001600160a01b03908116911614919050565b60606000610ea983610f94565b600101905060008167ffffffffffffffff811115610ec957610ec96111f4565b6040519080825280601f01601f191660200182016040528015610ef3576020820181803683370190505b5090508181016020015b600019016f181899199a1a9b1b9c1cb0b131b232b360811b600a86061a8153600a8504945084610efd57509392505050565b6001600160a01b038216610f5957604051633250574960e11b8152600060048201526024016103f4565b6000610f6783836000610736565b90506001600160a01b038116156104ca576040516339e3563760e11b8152600060048201526024016103f4565b60008072184f03e93ff9f4daa797ed6e38ed64bf6a1f0160401b8310610fd35772184f03e93ff9f4daa797ed6e38ed64bf6a1f0160401b830492506040015b6d04ee2d6d415b85acef81000000008310610fff576d04ee2d6d415b85acef8100000000830492506020015b662386f26fc10000831061101d57662386f26fc10000830492506010015b6305f5e1008310611035576305f5e100830492506008015b612710831061104957612710830492506004015b6064831061105b576064830492506002015b600a83106102fe5760010192915050565b6001600160e01b0319811681146106c857600080fd5b60006020828403121561109457600080fd5b81356106588161106c565b60005b838110156110ba5781810151838201526020016110a2565b50506000910152565b600081518084526110db81602086016020860161109f565b601f01601f19169290920160200192915050565b60208152600061065860208301846110c3565b60006020828403121561111457600080fd5b5035919050565b80356001600160a01b038116811461113257600080fd5b919050565b6000806040838503121561114a57600080fd5b6111538361111b565b946020939093013593505050565b60008060006060848603121561117657600080fd5b61117f8461111b565b925061118d6020850161111b565b9150604084013590509250925092565b6000602082840312156111af57600080fd5b6106588261111b565b600080604083850312156111cb57600080fd5b6111d48361111b565b9150602083013580151581146111e957600080fd5b809150509250929050565b634e487b7160e01b600052604160045260246000fd5b600067ffffffffffffffff80841115611225576112256111f4565b604051601f8501601f19908116603f0116810190828211818310171561124d5761124d6111f4565b8160405280935085815286868601111561126657600080fd5b858560208301376000602087830101525050509392505050565b6000806000806080858703121561129657600080fd5b61129f8561111b565b93506112ad6020860161111b565b925060408501359150606085013567ffffffffffffffff8111156112d057600080fd5b8501601f810187136112e157600080fd5b6112f08782356020840161120a565b91505092959194509250565b6000806040838503121561130f57600080fd5b6113188361111b565b9150602083013567ffffffffffffffff81111561133457600080fd5b8301601f8101851361134557600080fd5b6113548582356020840161120a565b9150509250929050565b6000806040838503121561137157600080fd5b61137a8361111b565b91506113886020840161111b565b90509250929050565b600181811c908216806113a557607f821691505b6020821081036113c557634e487b7160e01b600052602260045260246000fd5b50919050565b6000600182016113eb57634e487b7160e01b600052601160045260246000fd5b5060010190565b6001600160a01b0385811682528416602082015260408101839052608060608201819052600090611425908301846110c3565b9695505050505050565b60006020828403121561144157600080fd5b81516106588161106c565b6000835161145e81846020880161109f565b83519083019061147281836020880161109f565b01949350505050565b601f8211156104ca57600081815260208120601f850160051c810160208610156114a25750805b601f850160051c820191505b81811015610a6f578281556001016114ae565b815167ffffffffffffffff8111156114db576114db6111f4565b6114ef816114e98454611391565b8461147b565b602080601f831160018114611524576000841561150c5750858301515b600019600386901b1c1916600185901b178555610a6f565b600085815260208120601f198616915b8281101561155357888601518255948401946001909101908401611534565b50858210156115715787850151600019600388901b60f8161c191681555b5050505050600190811b0190555056fea26469706673582212204d1f2e4002b4f428c4bbc1a014bf31141a72d3b38502db1af0f49f974effc3e764736f6c63430008140033",
  "linkReferences": {},
  "deployedLinkReferences": {}
}