{
  "_format": "hh-sol-artifact-1",
  "contractName": "SimpleBloodDonation",
  "sourceName": "contracts/SimpleBloodDonation.sol",
  "abi": [
    {
      "inputs": [
        {
          "internalType": "address",
          "name": "_bloodToken",
          "type": "address"
        },
        {
          "internalType": "address",
          "name": "_donationNFT",
          "type": "address"
        }
      ],
      "stateMutability": "nonpayable",
      "type": "constructor"
    },
    {
      "inputs": [
        {
          "internalType": "address",
          "name": "owner",
          "type": "address"
        }
      ],
      "name": "OwnableInvalidOwner",
      "type": "error"
    },
    {
      "inputs": [
        {
          "internalType": "address",
          "name": "account",
          "type": "address"
        }
      ],
      "name": "OwnableUnauthorizedAccount",
      "type": "error"
    },
    {
      "inputs": [],
      "name": "ReentrancyGuardReentrantCall",
      "type": "error"
    },
    {
      "anonymous": false,
      "inputs": [
        {
          "indexed": true,
          "internalType": "uint256",
          "name": "donationId",
          "type": "uint256"
        },
        {
          "indexed": true,
          "internalType": "address",
          "name": "donor",
          "type": "address"
        },
        {
          "indexed": false,
          "internalType": "string",
          "name": "bloodType",
          "type": "string"
        },
        {
          "indexed": false,
          "internalType": "uint256",
          "name": "quantity",
          "type": "uint256"
        },
        {
          "indexed": false,
          "internalType": "string",
          "name": "hospital",
          "type": "string"
        },
        {
          "indexed": false,
          "internalType": "string",
          "name": "location",
          "type": "string"
        }
      ],
      "name": "DonationLogged",
      "type": "event"
    },
    {
      "anonymous": false,
      "inputs": [
        {
          "indexed": true,
          "internalType": "address",
          "name": "donor",
          "type": "address"
        },
        {
          "indexed": false,
          "internalType": "string",
          "name": "name",
          "type": "string"
        },
        {
          "indexed": false,
          "internalType": "string",
          "name": "bloodType",
          "type": "string"
        },
        {
          "indexed": false,
          "internalType": "string",
          "name": "location",
          "type": "string"
        }
      ],
      "name": "DonorRegistered",
      "type": "event"
    },
    {
      "anonymous": false,
      "inputs": [
        {
          "indexed": true,
          "internalType": "address",
          "name": "donor",
          "type": "address"
        },
        {
          "indexed": false,
          "internalType": "uint256",
          "name": "tokenId",
          "type": "uint256"
        },
        {
          "indexed": false,
          "internalType": "uint256",
          "name": "donationId",
          "type": "uint256"
        }
      ],
      "name": "NFTMinted",
      "type": "event"
    },
    {
      "anonymous": false,
      "inputs": [
        {
          "indexed": true,
          "internalType": "address",
          "name": "previousOwner",
          "type": "address"
        },
        {
          "indexed": true,
          "internalType": "address",
          "name": "newOwner",
          "type": "address"
        }
      ],
      "name": "OwnershipTransferred",
      "type": "event"
    },
    {
      "anonymous": false,
      "inputs": [
        {
          "indexed": true,
          "internalType": "address",
          "name": "donor",
          "type": "address"
        },
        {
          "indexed": false,
          "internalType": "uint256",
          "name": "amount",
          "type": "uint256"
        }
      ],
      "name": "TokensRewarded",
      "type": "event"
    },
    {
      "inputs": [],
      "name": "TOKENS_PER_UNIT",
      "outputs": [
        {
          "internalType": "uint256",
          "name": "",
          "type": "uint256"
        }
      ],
      "stateMutability": "view",
      "type": "function"
    },
    {
      "inputs": [],
      "name": "bloodToken",
      "outputs": [
        {
          "internalType": "contract SimpleBloodToken",
          "name": "",
          "type": "address"
        }
      ],
      "stateMutability": "view",
      "type": "function"
    },
    {
      "inputs": [],
      "name": "donationNFT",
      "outputs": [
        {
          "internalType": "contract SimpleDonationNFT",
          "name": "",
          "type": "address"
        }
      ],
      "stateMutability": "view",
      "type": "function"
    },
    {
      "inputs": [
        {
          "internalType": "uint256",
          "name": "",
          "type": "uint256"
        }
      ],
      "name": "donations",
      "outputs": [
        {
          "internalType": "address",
          "name": "donor",
          "type": "address"
        },
        {
          "internalType": "string",
          "name": "bloodType",
          "type": "string"
        },
        {
          "internalType": "uint256",
          "name": "quantity",
          "type": "uint256"
        },
        {
          "internalType": "string",
          "name": "hospital",
          "type": "string"
        },
        {
          "internalType": "string",
          "name": "location",
          "type": "string"
        },
        {
          "internalType": "uint256",
          "name": "timestamp",
          "type": "uint256"
        },
        {
          "internalType": "uint256",
          "name": "nftTokenId",
          "type": "uint256"
        },
        {
          "internalType": "bool",
          "name": "nftMinted",
          "type": "bool"
        }
      ],
      "stateMutability": "view",
      "type": "function"
    },
    {
      "inputs": [
        {
          "internalType": "uint256",
          "name": "",
          "type": "uint256"
        }
      ],
      "name": "donorAddresses",
      "outputs": [
        {
          "internalType": "address",
          "name": "",
          "type": "address"
        }
      ],
      "stateMutability": "view",
      "type": "function"
    },
    {
      "inputs": [
        {
          "internalType": "address",
          "name": "",
          "type": "address"
        }
      ],
      "name": "donors",
      "outputs": [
        {
          "internalType": "string",
          "name": "name",
          "type": "string"
        },
        {
          "internalType": "string",
          "name": "bloodType",
          "type": "string"
        },
        {
          "internalType": "string",
          "name": "location",
          "type": "string"
        },
        {
          "internalType": "uint256",
          "name": "totalDonations",
          "type": "uint256"
        },
        {
          "internalType": "uint256",
          "name": "totalUnits",
          "type": "uint256"
        },
        {
          "internalType": "bool",
          "name": "isRegistered",
          "type": "bool"
        },
        {
          "internalType": "uint256",
          "name": "registeredAt",
          "type": "uint256"
        }
      ],
      "stateMutability": "view",
      "type": "function"
    },
    {
      "inputs": [],
      "name": "getAllDonors",
      "outputs": [
        {
          "internalType": "address[]",
          "name": "",
          "type": "address[]"
        }
      ],
      "stateMutability": "view",
      "type": "function"
    },
    {
      "inputs": [],
      "name": "getContractStats",
      "outputs": [
        {
          "internalType": "uint256",
          "name": "",
          "type": "uint256"
        },
        {
          "internalType": "uint256",
          "name": "",
          "type": "uint256"
        },
        {
          "internalType": "uint256",
          "name": "",
          "type": "uint256"
        }
      ],
      "stateMutability": "view",
      "type": "function"
    },
    {
      "inputs": [
        {
          "internalType": "uint256",
          "name": "_donationId",
          "type": "uint256"
        }
      ],
      "name": "getDonation",
      "outputs": [
        {
          "components": [
            {
              "internalType": "address",
              "name": "donor",
              "type": "address"
            },
            {
              "internalType": "string",
              "name": "bloodType",
              "type": "string"
            },
            {
              "internalType": "uint256",
              "name": "quantity",
              "type": "uint256"
            },
            {
              "internalType": "string",
              "name": "hospital",
              "type": "string"
            },
            {
              "internalType": "string",
              "name": "location",
              "type": "string"
            },
            {
              "internalType": "uint256",
              "name": "timestamp",
              "type": "uint256"
            },
            {
              "internalType": "uint256",
              "name": "nftTokenId",
              "type": "uint256"
            },
            {
              "internalType": "bool",
              "name": "nftMinted",
              "type": "bool"
            }
          ],
          "internalType": "struct SimpleBloodDonation.Donation",
          "name": "",
          "type": "tuple"
        }
      ],
      "stateMutability": "view",
      "type": "function"
    },
    {
      "inputs": [
        {
          "internalType": "address",
          "name": "_donor",
          "type": "address"
        }
      ],
      "name": "getDonorInfo",
      "outputs": [
        {
          "components": [
            {
              "internalType": "string",
              "name": "name",
              "type": "string"
            },
            {
              "internalType": "string",
              "name": "bloodType",
              "type": "string"
            },
            {
              "internalType": "string",
              "name": "location",
              "type": "string"
            },
            {
              "internalType": "uint256",
              "name": "totalDonations",
              "type": "uint256"
            },
            {
              "internalType": "uint256",
              "name": "totalUnits",
              "type": "uint256"
            },
            {
              "internalType": "bool",
              "name": "isRegistered",
              "type": "bool"
            },
            {
              "internalType": "uint256",
              "name": "registeredAt",
              "type": "uint256"
            }
          ],
          "internalType": "struct SimpleBloodDonation.Donor",
          "name": "",
          "type": "tuple"
        }
      ],
      "stateMutability": "view",
      "type": "function"
    },
    {
      "inputs": [
        {
          "internalType": "string",
          "name": "_bloodType",
          "type": "string"
        },
        {
          "internalType": "uint256",
          "name": "_quantity",
          "type": "uint256"
        },
        {
          "internalType": "string",
          "name": "_hospital",
          "type": "string"
        }
      ],
      "name": "logDonation",
      "outputs": [],
      "stateMutability": "nonpayable",
      "type": "function"
    },
    {
      "inputs": [
        {
          "internalType": "uint256",
          "name": "_donationId",
          "type": "uint256"
        },
        {
          "internalType": "string",
          "name": "_tokenURI",
          "type": "string"
        }
      ],
      "name": "mintDonationNFT",
      "outputs": [],
      "stateMutability": "nonpayable",
      "type": "function"
    },
    {
      "inputs": [],
      "name": "owner",
      "outputs": [
        {
          "internalType": "address",
          "name": "",
          "type": "address"
        }
      ],
      "stateMutability": "view",
      "type": "function"
    },
    {
      "inputs": [
        {
          "internalType": "string",
          "name": "_name",
          "type": "string"
        },
        {
          "internalType": "string",
          "name": "_bloodType",
          "type": "string"
        },
        {
          "internalType": "string",
          "name": "_location",
          "type": "string"
        }
      ],
      "name": "registerDonor",
      "outputs": [],
      "stateMutability": "nonpayable",
      "type": "function"
    },
    {
      "inputs": [],
      "name": "renounceOwnership",
      "outputs": [],
      "stateMutability": "nonpayable",
      "type": "function"
    },
    {
      "inputs": [],
      "name": "totalDonations",
      "outputs": [
        {
          "internalType": "uint256",
          "name": "",
          "type": "uint256"
        }
      ],
      "stateMutability": "view",
      "type": "function"
    },
    {
      "inputs": [],
      "name": "totalDonors",
      "outputs": [
        {
          "internalType": "uint256",
          "name": "",
          "type": "uint256"
        }
      ],
      "stateMutability": "view",
      "type": "function"
    },
    {
      "inputs": [
        {
          "internalType": "address",
          "name": "newOwner",
          "type": "address"
        }
      ],
      "name": "transferOwnership",
      "outputs": [],
      "stateMutability": "nonpayable",
      "type": "function"
    }
  ],
  "bytecode": "0x60806040523480156200001157600080fd5b5060405162001e7438038062001e7483398101604081905262000034916200010a565b33806200005b57604051631e4fbdf760e01b81526000600482015260240160405180910390fd5b62000066816200009d565b5060018055600880546001600160a01b039384166001600160a01b0319918216179091556009805492909316911617905562000142565b600080546001600160a01b038381166001600160a01b0319831681178455604051919092169283917f8be0079c531659141344cd1fd0a4f28419497f9722a3daafe3b4186f6b6457e09190a35050565b80516001600160a01b03811681146200010557600080fd5b919050565b600080604083850312156200011e57600080fd5b6200012983620000ed565b91506200013960208401620000ed565b90509250929050565b611d2280620001526000396000f3fe608060405234801561001057600080fd5b50600436106101165760003560e01c8063ba166e2b116100a2578063dfe6b5d611610071578063dfe6b5d61461023c578063ef07a81f1461025f578063f2fde38b1461027f578063f639b16514610292578063f8626af8146102a557600080fd5b8063ba166e2b146101de578063c46a60a5146101ed578063ca0cdea81461020d578063de2ed8931461023357600080fd5b80635bff2f34116100e95780635bff2f341461018a57806369adcbb21461019d578063715018a6146101b05780638da5cb5b146101b857806398e36b04146101c957600080fd5b8063238422021461011b57806325c302e41461014b5780632b2aee5d1461016257806342f4807d14610175575b600080fd5b60095461012e906001600160a01b031681565b6040516001600160a01b0390911681526020015b60405180910390f35b61015460065481565b604051908152602001610142565b61012e61017036600461154b565b6102cc565b610188610183366004611607565b6102f6565b005b61018861019836600461168f565b61052e565b6101886101ab3660046116d6565b610708565b610188610ae7565b6000546001600160a01b031661012e565b6101d1610afb565b604051610142919061172c565b610154678ac7230489e8000081565b6102006101fb366004611779565b610b5d565b60405161014291906117ef565b61022061021b366004611779565b610dab565b604051610142979695949392919061187f565b61015460055481565b610244610f84565b60408051938452602084019290925290820152606001610142565b61027261026d36600461154b565b611014565b60405161014291906118df565b61018861028d366004611779565b61127e565b60085461012e906001600160a01b031681565b6102b86102b336600461154b565b6112bc565b604051610142989796959493929190611990565b600481815481106102dc57600080fd5b6000918252602090912001546001600160a01b0316905081565b3360009081526002602052604090206005015460ff16156103535760405162461bcd60e51b8152602060048201526012602482015271105b1c9958591e481c9959da5cdd195c995960721b60448201526064015b60405180910390fd5b60008351116103945760405162461bcd60e51b815260206004820152600d60248201526c13985b59481c995c5d5a5c9959609a1b604482015260640161034a565b60008151116103d95760405162461bcd60e51b8152602060048201526011602482015270131bd8d85d1a5bdb881c995c5d5a5c9959607a1b604482015260640161034a565b6040805160e081018252848152602080820185905281830184905260006060830181905260808301819052600160a08401524260c08401523381526002909152919091208151819061042b9082611a8e565b50602082015160018201906104409082611a8e565b50604082015160028201906104559082611a8e565b5060608201516003820155608082015160048083019190915560a083015160058301805491151560ff1990921691909117905560c090920151600691820155815460018101835560009283527f8a35acfbc15ff81a39ae7d344fd709f28e8600b4aa8c65c6b64bfe7fe36bd19b0180546001600160a01b031916331790558054916104df83611b64565b9190505550336001600160a01b03167f4529b6ca0a70f5c52377fab93e5f5eaf039aefc850486d724409722e4c44d43084848460405161052193929190611b7d565b60405180910390a2505050565b6105366114a4565b60008211801561054857506007548211155b61058a5760405162461bcd60e51b8152602060048201526013602482015272125b9d985b1a5908191bdb985d1a5bdb881251606a1b604482015260640161034a565b600082815260036020526040902080546001600160a01b031633146105e55760405162461bcd60e51b81526020600482015260116024820152702737ba103cb7bab9103237b730ba34b7b760791b604482015260640161034a565b600781015460ff161561062f5760405162461bcd60e51b815260206004820152601260248201527113919508185b1c9958591e481b5a5b9d195960721b604482015260640161034a565b60095460405163d0def52160e01b81526000916001600160a01b03169063d0def521906106629033908790600401611bc0565b6020604051808303816000875af1158015610681573d6000803e3d6000fd5b505050506040513d601f19601f820116820180604052508101906106a59190611bec565b6006830181905560078301805460ff19166001179055604080518281526020810187905291925033917f3a8a89b59a31c39a36febecb987e0657ab7b7c73b60ebacb44dcb9886c2d5c8a910160405180910390a2505061070460018055565b5050565b6107106114a4565b3360009081526002602052604090206005015460ff166107635760405162461bcd60e51b815260206004820152600e60248201526d139bdd081c9959da5cdd195c995960921b604482015260640161034a565b600082118015610774575060058211155b6107b35760405162461bcd60e51b815260206004820152601060248201526f496e76616c6964207175616e7469747960801b604482015260640161034a565b60008151116107f85760405162461bcd60e51b8152602060048201526011602482015270121bdcdc1a5d185b081c995c5d5a5c9959607a1b604482015260640161034a565b33600090815260026020526040812060078054919291829061081990611b64565b9190508190559050604051806101000160405280336001600160a01b0316815260200186815260200185815260200184815260200183600201805461085d90611a06565b80601f016020809104026020016040519081016040528092919081815260200182805461088990611a06565b80156108d65780601f106108ab576101008083540402835291602001916108d6565b820191906000526020600020905b8154815290600101906020018083116108b957829003601f168201915b5050509183525050426020808301919091526000604080840182905260609093018190528481526003825291909120825181546001600160a01b0319166001600160a01b039091161781559082015160018201906109349082611a8e565b5060408201516002820155606082015160038201906109539082611a8e565b50608082015160048201906109689082611a8e565b5060a0820151600582015560c0820151600682015560e0909101516007909101805460ff19169115159190911790556003820180549060006109a983611b64565b9190505550838260040160008282546109c29190611c05565b9091555050600580549060006109d783611b64565b90915550600090506109f1678ac7230489e8000086611c1e565b6008546040516340c10f1960e01b8152336004820152602481018390529192506001600160a01b0316906340c10f1990604401600060405180830381600087803b158015610a3e57600080fd5b505af1158015610a52573d6000803e3d6000fd5b50505050336001600160a01b0316827fe738a65d8867ad563bdb8e604dc62aba22f6de60eb56c97795dd38edca5d843588888888600201604051610a999493929190611c35565b60405180910390a360405181815233907f0d3ecba324ef5a283bcbd5d1a966cab18661432ab3575740c588f7a0144b0dfa9060200160405180910390a2505050610ae260018055565b505050565b610aef6114ce565b610af960006114fb565b565b60606004805480602002602001604051908101604052809291908181526020018280548015610b5357602002820191906000526020600020905b81546001600160a01b03168152600190910190602001808311610b35575b5050505050905090565b610b9f6040518060e001604052806060815260200160608152602001606081526020016000815260200160008152602001600015158152602001600081525090565b6001600160a01b03821660009081526002602052604090819020815160e08101909252805482908290610bd190611a06565b80601f0160208091040260200160405190810160405280929190818152602001828054610bfd90611a06565b8015610c4a5780601f10610c1f57610100808354040283529160200191610c4a565b820191906000526020600020905b815481529060010190602001808311610c2d57829003601f168201915b50505050508152602001600182018054610c6390611a06565b80601f0160208091040260200160405190810160405280929190818152602001828054610c8f90611a06565b8015610cdc5780601f10610cb157610100808354040283529160200191610cdc565b820191906000526020600020905b815481529060010190602001808311610cbf57829003601f168201915b50505050508152602001600282018054610cf590611a06565b80601f0160208091040260200160405190810160405280929190818152602001828054610d2190611a06565b8015610d6e5780601f10610d4357610100808354040283529160200191610d6e565b820191906000526020600020905b815481529060010190602001808311610d5157829003601f168201915b50505091835250506003820154602082015260048201546040820152600582015460ff161515606082015260069091015460809091015292915050565b600260205260009081526040902080548190610dc690611a06565b80601f0160208091040260200160405190810160405280929190818152602001828054610df290611a06565b8015610e3f5780601f10610e1457610100808354040283529160200191610e3f565b820191906000526020600020905b815481529060010190602001808311610e2257829003601f168201915b505050505090806001018054610e5490611a06565b80601f0160208091040260200160405190810160405280929190818152602001828054610e8090611a06565b8015610ecd5780601f10610ea257610100808354040283529160200191610ecd565b820191906000526020600020905b815481529060010190602001808311610eb057829003601f168201915b505050505090806002018054610ee290611a06565b80601f0160208091040260200160405190810160405280929190818152602001828054610f0e90611a06565b8015610f5b5780601f10610f3057610100808354040283529160200191610f5b565b820191906000526020600020905b815481529060010190602001808311610f3e57829003601f168201915b5050506003840154600485015460058601546006909601549495919490935060ff909116915087565b600080600080600860009054906101000a90046001600160a01b03166001600160a01b03166318160ddd6040518163ffffffff1660e01b8152600401602060405180830381865afa158015610fdd573d6000803e3d6000fd5b505050506040513d601f19601f820116820180604052508101906110019190611bec565b6006546005549096909550909350915050565b61106760405180610100016040528060006001600160a01b031681526020016060815260200160008152602001606081526020016060815260200160008152602001600081526020016000151581525090565b6000828152600360209081526040918290208251610100810190935280546001600160a01b0316835260018101805491928401916110a490611a06565b80601f01602080910402602001604051908101604052809291908181526020018280546110d090611a06565b801561111d5780601f106110f25761010080835404028352916020019161111d565b820191906000526020600020905b81548152906001019060200180831161110057829003601f168201915b505050505081526020016002820154815260200160038201805461114090611a06565b80601f016020809104026020016040519081016040528092919081815260200182805461116c90611a06565b80156111b95780601f1061118e576101008083540402835291602001916111b9565b820191906000526020600020905b81548152906001019060200180831161119c57829003601f168201915b505050505081526020016004820180546111d290611a06565b80601f01602080910402602001604051908101604052809291908181526020018280546111fe90611a06565b801561124b5780601f106112205761010080835404028352916020019161124b565b820191906000526020600020905b81548152906001019060200180831161122e57829003601f168201915b5050509183525050600582015460208201526006820154604082015260079091015460ff16151560609091015292915050565b6112866114ce565b6001600160a01b0381166112b057604051631e4fbdf760e01b81526000600482015260240161034a565b6112b9816114fb565b50565b600360205260009081526040902080546001820180546001600160a01b0390921692916112e890611a06565b80601f016020809104026020016040519081016040528092919081815260200182805461131490611a06565b80156113615780601f1061133657610100808354040283529160200191611361565b820191906000526020600020905b81548152906001019060200180831161134457829003601f168201915b50505050509080600201549080600301805461137c90611a06565b80601f01602080910402602001604051908101604052809291908181526020018280546113a890611a06565b80156113f55780601f106113ca576101008083540402835291602001916113f5565b820191906000526020600020905b8154815290600101906020018083116113d857829003601f168201915b50505050509080600401805461140a90611a06565b80601f016020809104026020016040519081016040528092919081815260200182805461143690611a06565b80156114835780601f1061145857610100808354040283529160200191611483565b820191906000526020600020905b81548152906001019060200180831161146657829003601f168201915b50505050600583015460068401546007909401549293909290915060ff1688565b6002600154036114c757604051633ee5aeb560e01b815260040160405180910390fd5b6002600155565b6000546001600160a01b03163314610af95760405163118cdaa760e01b815233600482015260240161034a565b600080546001600160a01b038381166001600160a01b0319831681178455604051919092169283917f8be0079c531659141344cd1fd0a4f28419497f9722a3daafe3b4186f6b6457e09190a35050565b60006020828403121561155d57600080fd5b5035919050565b634e487b7160e01b600052604160045260246000fd5b600082601f83011261158b57600080fd5b813567ffffffffffffffff808211156115a6576115a6611564565b604051601f8301601f19908116603f011681019082821181831017156115ce576115ce611564565b816040528381528660208588010111156115e757600080fd5b836020870160208301376000602085830101528094505050505092915050565b60008060006060848603121561161c57600080fd5b833567ffffffffffffffff8082111561163457600080fd5b6116408783880161157a565b9450602086013591508082111561165657600080fd5b6116628783880161157a565b9350604086013591508082111561167857600080fd5b506116858682870161157a565b9150509250925092565b600080604083850312156116a257600080fd5b82359150602083013567ffffffffffffffff8111156116c057600080fd5b6116cc8582860161157a565b9150509250929050565b6000806000606084860312156116eb57600080fd5b833567ffffffffffffffff8082111561170357600080fd5b61170f8783880161157a565b945060208601359350604086013591508082111561167857600080fd5b6020808252825182820181905260009190848201906040850190845b8181101561176d5783516001600160a01b031683529284019291840191600101611748565b50909695505050505050565b60006020828403121561178b57600080fd5b81356001600160a01b03811681146117a257600080fd5b9392505050565b6000815180845260005b818110156117cf576020818501810151868301820152016117b3565b506000602082860101526020601f19601f83011685010191505092915050565b602081526000825160e0602084015261180c6101008401826117a9565b90506020840151601f198085840301604086015261182a83836117a9565b925060408601519150808584030160608601525061184882826117a9565b91505060608401516080840152608084015160a084015260a0840151151560c084015260c084015160e08401528091505092915050565b60e08152600061189260e083018a6117a9565b82810360208401526118a4818a6117a9565b905082810360408401526118b881896117a9565b60608401979097525050608081019390935290151560a083015260c0909101529392505050565b602081526118f96020820183516001600160a01b03169052565b600060208301516101008060408501526119176101208501836117a9565b9150604085015160608501526060850151601f198086850301608087015261193f84836117a9565b935060808701519150808685030160a08701525061195d83826117a9565b92505060a085015160c085015260c085015160e085015260e08501516119868286018215159052565b5090949350505050565b6001600160a01b0389168152610100602082018190526000906119b58382018b6117a9565b905088604084015282810360608401526119cf81896117a9565b905082810360808401526119e381886117a9565b60a0840196909652505060c0810192909252151560e09091015295945050505050565b600181811c90821680611a1a57607f821691505b602082108103611a3a57634e487b7160e01b600052602260045260246000fd5b50919050565b601f821115610ae257600081815260208120601f850160051c81016020861015611a675750805b601f850160051c820191505b81811015611a8657828155600101611a73565b505050505050565b815167ffffffffffffffff811115611aa857611aa8611564565b611abc81611ab68454611a06565b84611a40565b602080601f831160018114611af15760008415611ad95750858301515b600019600386901b1c1916600185901b178555611a86565b600085815260208120601f198616915b82811015611b2057888601518255948401946001909101908401611b01565b5085821015611b3e5787850151600019600388901b60f8161c191681555b5050505050600190811b01905550565b634e487b7160e01b600052601160045260246000fd5b600060018201611b7657611b76611b4e565b5060010190565b606081526000611b9060608301866117a9565b8281036020840152611ba281866117a9565b90508281036040840152611bb681856117a9565b9695505050505050565b6001600160a01b0383168152604060208201819052600090611be4908301846117a9565b949350505050565b600060208284031215611bfe57600080fd5b5051919050565b80820180821115611c1857611c18611b4e565b92915050565b8082028115828204841417611c1857611c18611b4e565b608081526000611c4860808301876117a9565b602086818501528382036040850152611c6182876117a9565b9150838203606085015260008554611c7881611a06565b80855260018281168015611c935760018114611cad57611cdb565b60ff1984168787015282151560051b870186019450611cdb565b896000528560002060005b84811015611cd3578154898201890152908301908701611cb8565b880187019550505b50929b9a505050505050505050505056fea2646970667358221220fa20d406533bce4b07c01dc16e652fe584feeb161b698a62cf8b86d571b6704764736f6c63430008140033",
  "linkReferences": {},
  "deployedLinkReferences": {}
}