{
  "_format": "hh-sol-artifact-1",
  "contractName": "SimpleBloodToken",
  "sourceName": "contracts/SimpleBloodToken.sol",
  "abi": [
    {
      "inputs": [],
      "stateMutability": "nonpayable",
      "type": "constructor"
    },
    {
      "inputs": [
        {
          "internalType": "address",
          "name": "spender",
          "type": "address"
        },
        {
          "internalType": "uint256",
          "name": "allowance",
          "type": "uint256"
        },
        {
          "internalType": "uint256",
          "name": "needed",
          "type": "uint256"
        }
      ],
      "name": "ERC20InsufficientAllowance",
      "type": "error"
    },
    {
      "inputs": [
        {
          "internalType": "address",
          "name": "sender",
          "type": "address"
        },
        {
          "internalType": "uint256",
          "name": "balance",
          "type": "uint256"
        },
        {
          "internalType": "uint256",
          "name": "needed",
          "type": "uint256"
        }
      ],
      "name": "ERC20InsufficientBalance",
      "type": "error"
    },
    {
      "inputs": [
        {
          "internalType": "address",
          "name": "approver",
          "type": "address"
        }
      ],
      "name": "ERC20InvalidApprover",
      "type": "error"
    },
    {
      "inputs": [
        {
          "internalType": "address",
          "name": "receiver",
          "type": "address"
        }
      ],
      "name": "ERC20InvalidReceiver",
      "type": "error"
    },
    {
      "inputs": [
        {
          "internalType": "address",
          "name": "sender",
          "type": "address"
        }
      ],
      "name": "ERC20InvalidSender",
      "type": "error"
    },
    {
      "inputs": [
        {
          "internalType": "address",
          "name": "spender",
          "type": "address"
        }
      ],
      "name": "ERC20InvalidSpender",
      "type": "error"
    },
    {
      "inputs": [
        {
          "internalType": "address",
          "name": "owner",
          "type": "address"
        }
      ],
      "name": "OwnableInvalidOwner",
      "type": "error"
    },
    {
      "inputs": [
        {
          "internalType": "address",
          "name": "account",
          "type": "address"
        }
      ],
      "name": "OwnableUnauthorizedAccount",
      "type": "error"
    },
    {
      "anonymous": false,
      "inputs": [
        {
          "indexed": true,
          "internalType": "address",
          "name": "owner",
          "type": "address"
        },
        {
          "indexed": true,
          "internalType": "address",
          "name": "spender",
          "type": "address"
        },
        {
          "indexed": false,
          "internalType": "uint256",
          "name": "value",
          "type": "uint256"
        }
      ],
      "name": "Approval",
      "type": "event"
    },
    {
      "anonymous": false,
      "inputs": [
        {
          "indexed": true,
          "internalType": "address",
          "name": "minter",
          "type": "address"
        }
      ],
      "name": "MinterAdded",
      "type": "event"
    },
    {
      "anonymous": false,
      "inputs": [
        {
          "indexed": true,
          "internalType": "address",
          "name": "minter",
          "type": "address"
        }
      ],
      "name": "MinterRemoved",
      "type": "event"
    },
    {
      "anonymous": false,
      "inputs": [
        {
          "indexed": true,
          "internalType": "address",
          "name": "previousOwner",
          "type": "address"
        },
        {
          "indexed": true,
          "internalType": "address",
          "name": "newOwner",
          "type": "address"
        }
      ],
      "name": "OwnershipTransferred",
      "type": "event"
    },
    {
      "anonymous": false,
      "inputs": [
        {
          "indexed": true,
          "internalType": "address",
          "name": "from",
          "type": "address"
        },
        {
          "indexed": true,
          "internalType": "address",
          "name": "to",
          "type": "address"
        },
        {
          "indexed": false,
          "internalType": "uint256",
          "name": "value",
          "type": "uint256"
        }
      ],
      "name": "Transfer",
      "type": "event"
    },
    {
      "inputs": [],
      "name": "MAX_SUPPLY",
      "outputs": [
        {
          "internalType": "uint256",
          "name": "",
          "type": "uint256"
        }
      ],
      "stateMutability": "view",
      "type": "function"
    },
    {
      "inputs": [
        {
          "internalType": "address",
          "name": "minter",
          "type": "address"
        }
      ],
      "name": "addMinter",
      "outputs": [],
      "stateMutability": "nonpayable",
      "type": "function"
    },
    {
      "inputs": [
        {
          "internalType": "address",
          "name": "owner",
          "type": "address"
        },
        {
          "internalType": "address",
          "name": "spender",
          "type": "address"
        }
      ],
      "name": "allowance",
      "outputs": [
        {
          "internalType": "uint256",
          "name": "",
          "type": "uint256"
        }
      ],
      "stateMutability": "view",
      "type": "function"
    },
    {
      "inputs": [
        {
          "internalType": "address",
          "name": "spender",
          "type": "address"
        },
        {
          "internalType": "uint256",
          "name": "value",
          "type": "uint256"
        }
      ],
      "name": "approve",
      "outputs": [
        {
          "internalType": "bool",
          "name": "",
          "type": "bool"
        }
      ],
      "stateMutability": "nonpayable",
      "type": "function"
    },
    {
      "inputs": [
        {
          "internalType": "address",
          "name": "",
          "type": "address"
        }
      ],
      "name": "authorizedMinters",
      "outputs": [
        {
          "internalType": "bool",
          "name": "",
          "type": "bool"
        }
      ],
      "stateMutability": "view",
      "type": "function"
    },
    {
      "inputs": [
        {
          "internalType": "address",
          "name": "account",
          "type": "address"
        }
      ],
      "name": "balanceOf",
      "outputs": [
        {
          "internalType": "uint256",
          "name": "",
          "type": "uint256"
        }
      ],
      "stateMutability": "view",
      "type": "function"
    },
    {
      "inputs": [],
      "name": "decimals",
      "outputs": [
        {
          "internalType": "uint8",
          "name": "",
          "type": "uint8"
        }
      ],
      "stateMutability": "view",
      "type": "function"
    },
    {
      "inputs": [
        {
          "internalType": "address",
          "name": "to",
          "type": "address"
        },
        {
          "internalType": "uint256",
          "name": "amount",
          "type": "uint256"
        }
      ],
      "name": "mint",
      "outputs": [],
      "stateMutability": "nonpayable",
      "type": "function"
    },
    {
      "inputs": [],
      "name": "name",
      "outputs": [
        {
          "internalType": "string",
          "name": "",
          "type": "string"
        }
      ],
      "stateMutability": "view",
      "type": "function"
    },
    {
      "inputs": [],
      "name": "owner",
      "outputs": [
        {
          "internalType": "address",
          "name": "",
          "type": "address"
        }
      ],
      "stateMutability": "view",
      "type": "function"
    },
    {
      "inputs": [
        {
          "internalType": "address",
          "name": "minter",
          "type": "address"
        }
      ],
      "name": "removeMinter",
      "outputs": [],
      "stateMutability": "nonpayable",
      "type": "function"
    },
    {
      "inputs": [],
      "name": "renounceOwnership",
      "outputs": [],
      "stateMutability": "nonpayable",
      "type": "function"
    },
    {
      "inputs": [],
      "name": "symbol",
      "outputs": [
        {
          "internalType": "string",
          "name": "",
          "type": "string"
        }
      ],
      "stateMutability": "view",
      "type": "function"
    },
    {
      "inputs": [],
      "name": "totalSupply",
      "outputs": [
        {
          "internalType": "uint256",
          "name": "",
          "type": "uint256"
        }
      ],
      "stateMutability": "view",
      "type": "function"
    },
    {
      "inputs": [
        {
          "internalType": "address",
          "name": "to",
          "type": "address"
        },
        {
          "internalType": "uint256",
          "name": "value",
          "type": "uint256"
        }
      ],
      "name": "transfer",
      "outputs": [
        {
          "internalType": "bool",
          "name": "",
          "type": "bool"
        }
      ],
      "stateMutability": "nonpayable",
      "type": "function"
    },
    {
      "inputs": [
        {
          "internalType": "address",
          "name": "from",
          "type": "address"
        },
        {
          "internalType": "address",
          "name": "to",
          "type": "address"
        },
        {
          "internalType": "uint256",
          "name": "value",
          "type": "uint256"
        }
      ],
      "name": "transferFrom",
      "outputs": [
        {
          "internalType": "bool",
          "name": "",
          "type": "bool"
        }
      ],
      "stateMutability": "nonpayable",
      "type": "function"
    },
    {
      "inputs": [
        {
          "internalType": "address",
          "name": "newOwner",
          "type": "address"
        }
      ],
      "name": "transferOwnership",
      "outputs": [],
      "stateMutability": "nonpayable",
      "type": "function"
    }
  ],
  "bytecode": "0x60806040523480156200001157600080fd5b50336040518060400160405280600a815260200169213637b7b22a37b5b2b760b11b81525060405180604001604052806005815260200164109313d3d160da1b815250816003908162000065919062000351565b50600462000074828262000351565b5050506001600160a01b038116620000a757604051631e4fbdf760e01b8152600060048201526024015b60405180910390fd5b620000b281620000e9565b50620000c93369d3c21bcecceda10000006200013b565b336000908152600660205260409020805460ff1916600117905562000445565b600580546001600160a01b038381166001600160a01b0319831681179093556040519116919082907f8be0079c531659141344cd1fd0a4f28419497f9722a3daafe3b4186f6b6457e090600090a35050565b6001600160a01b038216620001675760405163ec442f0560e01b8152600060048201526024016200009e565b620001756000838362000179565b5050565b6001600160a01b038316620001a85780600260008282546200019c91906200041d565b909155506200021c9050565b6001600160a01b03831660009081526020819052604090205481811015620001fd5760405163391434e360e21b81526001600160a01b038516600482015260248101829052604481018390526064016200009e565b6001600160a01b03841660009081526020819052604090209082900390555b6001600160a01b0382166200023a5760028054829003905562000259565b6001600160a01b03821660009081526020819052604090208054820190555b816001600160a01b0316836001600160a01b03167fddf252ad1be2c89b69c2b068fc378daa952ba7f163c4a11628f55a4df523b3ef836040516200029f91815260200190565b60405180910390a3505050565b634e487b7160e01b600052604160045260246000fd5b600181811c90821680620002d757607f821691505b602082108103620002f857634e487b7160e01b600052602260045260246000fd5b50919050565b601f8211156200034c57600081815260208120601f850160051c81016020861015620003275750805b601f850160051c820191505b81811015620003485782815560010162000333565b5050505b505050565b81516001600160401b038111156200036d576200036d620002ac565b62000385816200037e8454620002c2565b84620002fe565b602080601f831160018114620003bd5760008415620003a45750858301515b600019600386901b1c1916600185901b17855562000348565b600085815260208120601f198616915b82811015620003ee57888601518255948401946001909101908401620003cd565b50858210156200040d5787850151600019600388901b60f8161c191681555b5050505050600190811b01905550565b808201808211156200043f57634e487b7160e01b600052601160045260246000fd5b92915050565b610ac180620004556000396000f3fe608060405234801561001057600080fd5b506004361061010b5760003560e01c806370a08231116100a2578063983b2d5611610071578063983b2d5614610213578063a9059cbb14610226578063aa2fe91b14610239578063dd62ed3e1461025c578063f2fde38b1461029557600080fd5b806370a08231146101bf578063715018a6146101e85780638da5cb5b146101f057806395d89b411461020b57600080fd5b80633092afd5116100de5780633092afd514610176578063313ce5671461018b57806332cb6b0c1461019a57806340c10f19146101ac57600080fd5b806306fdde0314610110578063095ea7b31461012e57806318160ddd1461015157806323b872dd14610163575b600080fd5b6101186102a8565b604051610125919061090b565b60405180910390f35b61014161013c366004610975565b61033a565b6040519015158152602001610125565b6002545b604051908152602001610125565b61014161017136600461099f565b610354565b6101896101843660046109db565b610378565b005b60405160128152602001610125565b6101556a084595161401484a00000081565b6101896101ba366004610975565b6103c9565b6101556101cd3660046109db565b6001600160a01b031660009081526020819052604090205490565b6101896104a4565b6005546040516001600160a01b039091168152602001610125565b6101186104b8565b6101896102213660046109db565b6104c7565b610141610234366004610975565b61051b565b6101416102473660046109db565b60066020526000908152604090205460ff1681565b61015561026a3660046109fd565b6001600160a01b03918216600090815260016020908152604080832093909416825291909152205490565b6101896102a33660046109db565b610529565b6060600380546102b790610a30565b80601f01602080910402602001604051908101604052809291908181526020018280546102e390610a30565b80156103305780601f1061030557610100808354040283529160200191610330565b820191906000526020600020905b81548152906001019060200180831161031357829003601f168201915b5050505050905090565b600033610348818585610567565b60019150505b92915050565b600033610362858285610579565b61036d8585856105f8565b506001949350505050565b610380610657565b6001600160a01b038116600081815260066020526040808220805460ff19169055517fe94479a9f7e1952cc78f2d6baab678adc1b772d936c6583def489e524cb666929190a250565b3360009081526006602052604090205460ff16806103f157506005546001600160a01b031633145b6104335760405162461bcd60e51b815260206004820152600e60248201526d139bdd08185d5d1a1bdc9a5e995960921b60448201526064015b60405180910390fd5b6a084595161401484a0000008161044960025490565b6104539190610a6a565b11156104965760405162461bcd60e51b815260206004820152601260248201527145786365656473206d617820737570706c7960701b604482015260640161042a565b6104a08282610684565b5050565b6104ac610657565b6104b660006106ba565b565b6060600480546102b790610a30565b6104cf610657565b6001600160a01b038116600081815260066020526040808220805460ff19166001179055517f6ae172837ea30b801fbfcdd4108aa1d5bf8ff775444fd70256b44e6bf3dfc3f69190a250565b6000336103488185856105f8565b610531610657565b6001600160a01b03811661055b57604051631e4fbdf760e01b81526000600482015260240161042a565b610564816106ba565b50565b610574838383600161070c565b505050565b6001600160a01b038381166000908152600160209081526040808320938616835292905220546000198110156105f257818110156105e357604051637dc7a0d960e11b81526001600160a01b0384166004820152602481018290526044810183905260640161042a565b6105f28484848403600061070c565b50505050565b6001600160a01b03831661062257604051634b637e8f60e11b81526000600482015260240161042a565b6001600160a01b03821661064c5760405163ec442f0560e01b81526000600482015260240161042a565b6105748383836107e1565b6005546001600160a01b031633146104b65760405163118cdaa760e01b815233600482015260240161042a565b6001600160a01b0382166106ae5760405163ec442f0560e01b81526000600482015260240161042a565b6104a0600083836107e1565b600580546001600160a01b038381166001600160a01b0319831681179093556040519116919082907f8be0079c531659141344cd1fd0a4f28419497f9722a3daafe3b4186f6b6457e090600090a35050565b6001600160a01b0384166107365760405163e602df0560e01b81526000600482015260240161042a565b6001600160a01b03831661076057604051634a1406b160e11b81526000600482015260240161042a565b6001600160a01b03808516600090815260016020908152604080832093871683529290522082905580156105f257826001600160a01b0316846001600160a01b03167f8c5be1e5ebec7d5bd14f71427d1e84f3dd0314c0f7b2291e5b200ac8c7c3b925846040516107d391815260200190565b60405180910390a350505050565b6001600160a01b03831661080c5780600260008282546108019190610a6a565b9091555061087e9050565b6001600160a01b0383166000908152602081905260409020548181101561085f5760405163391434e360e21b81526001600160a01b0385166004820152602481018290526044810183905260640161042a565b6001600160a01b03841660009081526020819052604090209082900390555b6001600160a01b03821661089a576002805482900390556108b9565b6001600160a01b03821660009081526020819052604090208054820190555b816001600160a01b0316836001600160a01b03167fddf252ad1be2c89b69c2b068fc378daa952ba7f163c4a11628f55a4df523b3ef836040516108fe91815260200190565b60405180910390a3505050565b600060208083528351808285015260005b818110156109385785810183015185820160400152820161091c565b506000604082860101526040601f19601f8301168501019250505092915050565b80356001600160a01b038116811461097057600080fd5b919050565b6000806040838503121561098857600080fd5b61099183610959565b946020939093013593505050565b6000806000606084860312156109b457600080fd5b6109bd84610959565b92506109cb60208501610959565b9150604084013590509250925092565b6000602082840312156109ed57600080fd5b6109f682610959565b9392505050565b60008060408385031215610a1057600080fd5b610a1983610959565b9150610a2760208401610959565b90509250929050565b600181811c90821680610a4457607f821691505b602082108103610a6457634e487b7160e01b600052602260045260246000fd5b50919050565b8082018082111561034e57634e487b7160e01b600052601160045260246000fdfea2646970667358221220a2951e3a540dae44c0816edd5bf17092e977151c13d8038edef60b0b5144f3a664736f6c63430008140033",
  "linkReferences": {},
  "deployedLinkReferences": {}
}